{
  "address": "0x5FbDB2315678afecb367f032d93F642f64180aa3",
  "abi": [
    {
      "inputs": [
        {
          "internalType": "string",
          "name": "name",
          "type": "string"
        },
        {
          "internalType": "string",
          "name": "symbol",
          "type": "string"
        }
      ],
      "stateMutability": "nonpayable",
      "type": "constructor"
    },
    {
      "anonymous": false,
      "inputs": [
        {
          "indexed": true,
          "internalType": "address",
          "name": "owner",
          "type": "address"
        },
        {
          "indexed": true,
          "internalType": "address",
          "name": "approved",
          "type": "address"
        },
        {
          "indexed": true,
          "internalType": "uint256",
          "name": "tokenId",
          "type": "uint256"
        }
      ],
      "name": "Approval",
      "type": "event"
    },
    {
      "anonymous": false,
      "inputs": [
        {
          "indexed": true,
          "internalType": "address",
          "name": "owner",
          "type": "address"
        },
        {
          "indexed": true,
          "internalType": "address",
          "name": "operator",
          "type": "address"
        },
        {
          "indexed": false,
          "internalType": "bool",
          "name": "approved",
          "type": "bool"
        }
      ],
      "name": "ApprovalForAll",
      "type": "event"
    },
    {
      "anonymous": false,
      "inputs": [
        {
          "indexed": false,
          "internalType": "uint256",
          "name": "_fromTokenId",
          "type": "uint256"
        },
        {
          "indexed": false,
          "internalType": "uint256",
          "name": "_toTokenId",
          "type": "uint256"
        }
      ],
      "name": "BatchMetadataUpdate",
      "type": "event"
    },
    {
      "anonymous": false,
      "inputs": [
        {
          "indexed": true,
          "internalType": "uint256",
          "name": "tokenId",
          "type": "uint256"
        }
      ],
      "name": "ListingCancelled",
      "type": "event"
    },
    {
      "anonymous": false,
      "inputs": [
        {
          "indexed": true,
          "internalType": "uint256",
          "name": "tokenId",
          "type": "uint256"
        },
        {
          "indexed": true,
          "internalType": "address",
          "name": "seller",
          "type": "address"
        },
        {
          "indexed": false,
          "internalType": "uint256",
          "name": "price",
          "type": "uint256"
        }
      ],
      "name": "ListingCreated",
      "type": "event"
    },
    {
      "anonymous": false,
      "inputs": [
        {
          "indexed": false,
          "internalType": "uint256",
          "name": "_tokenId",
          "type": "uint256"
        }
      ],
      "name": "MetadataUpdate",
      "type": "event"
    },
    {
      "anonymous": false,
      "inputs": [
        {
          "indexed": true,
          "internalType": "uint256",
          "name": "tokenId",
          "type": "uint256"
        },
        {
          "indexed": true,
          "internalType": "address",
          "name": "buyer",
          "type": "address"
        },
        {
          "indexed": false,
          "internalType": "uint256",
          "name": "price",
          "type": "uint256"
        }
      ],
      "name": "NFTSold",
      "type": "event"
    },
    {
      "anonymous": false,
      "inputs": [
        {
          "indexed": true,
          "internalType": "uint256",
          "name": "tokenId",
          "type": "uint256"
        },
        {
          "indexed": false,
          "internalType": "uint256",
          "name": "newPrice",
          "type": "uint256"
        }
      ],
      "name": "PriceUpdated",
      "type": "event"
    },
    {
      "anonymous": false,
      "inputs": [
        {
          "indexed": true,
          "internalType": "address",
          "name": "from",
          "type": "address"
        },
        {
          "indexed": true,
          "internalType": "address",
          "name": "to",
          "type": "address"
        },
        {
          "indexed": true,
          "internalType": "uint256",
          "name": "tokenId",
          "type": "uint256"
        }
      ],
      "name": "Transfer",
      "type": "event"
    },
    {
      "inputs": [
        {
          "internalType": "address",
          "name": "to",
          "type": "address"
        },
        {
          "internalType": "uint256",
          "name": "tokenId",
          "type": "uint256"
        }
      ],
      "name": "approve",
      "outputs": [],
      "stateMutability": "nonpayable",
      "type": "function"
    },
    {
      "inputs": [
        {
          "internalType": "address",
          "name": "owner",
          "type": "address"
        }
      ],
      "name": "balanceOf",
      "outputs": [
        {
          "internalType": "uint256",
          "name": "",
          "type": "uint256"
        }
      ],
      "stateMutability": "view",
      "type": "function"
    },
    {
      "inputs": [
        {
          "internalType": "uint256",
          "name": "tokenId",
          "type": "uint256"
        }
      ],
      "name": "buyNFT",
      "outputs": [],
      "stateMutability": "payable",
      "type": "function"
    },
    {
      "inputs": [
        {
          "internalType": "uint256",
          "name": "tokenId",
          "type": "uint256"
        }
      ],
      "name": "cancelListing",
      "outputs": [],
      "stateMutability": "nonpayable",
      "type": "function"
    },
    {
      "inputs": [
        {
          "internalType": "uint256",
          "name": "tokenId",
          "type": "uint256"
        }
      ],
      "name": "getApproved",
      "outputs": [
        {
          "internalType": "address",
          "name": "",
          "type": "address"
        }
      ],
      "stateMutability": "view",
      "type": "function"
    },
    {
      "inputs": [
        {
          "internalType": "uint256",
          "name": "tokenId",
          "type": "uint256"
        }
      ],
      "name": "getImageURL",
      "outputs": [
        {
          "internalType": "string",
          "name": "",
          "type": "string"
        }
      ],
      "stateMutability": "view",
      "type": "function"
    },
    {
      "inputs": [
        {
          "internalType": "uint256",
          "name": "tokenId",
          "type": "uint256"
        }
      ],
      "name": "getListedToken",
      "outputs": [
        {
          "internalType": "uint256",
          "name": "",
          "type": "uint256"
        },
        {
          "internalType": "address",
          "name": "",
          "type": "address"
        },
        {
          "internalType": "uint256",
          "name": "",
          "type": "uint256"
        },
        {
          "internalType": "bool",
          "name": "",
          "type": "bool"
        }
      ],
      "stateMutability": "view",
      "type": "function"
    },
    {
      "inputs": [
        {
          "internalType": "string",
          "name": "tokenURI",
          "type": "string"
        }
      ],
      "name": "getNftMetadata",
      "outputs": [
        {
          "internalType": "string",
          "name": "",
          "type": "string"
        },
        {
          "internalType": "string",
          "name": "",
          "type": "string"
        }
      ],
      "stateMutability": "view",
      "type": "function"
    },
    {
      "inputs": [
        {
          "internalType": "uint256",
          "name": "tokenId",
          "type": "uint256"
        }
      ],
      "name": "getNftOwner",
      "outputs": [
        {
          "internalType": "address",
          "name": "",
          "type": "address"
        }
      ],
      "stateMutability": "view",
      "type": "function"
    },
    {
      "inputs": [
        {
          "internalType": "address",
          "name": "owner",
          "type": "address"
        },
        {
          "internalType": "address",
          "name": "operator",
          "type": "address"
        }
      ],
      "name": "isApprovedForAll",
      "outputs": [
        {
          "internalType": "bool",
          "name": "",
          "type": "bool"
        }
      ],
      "stateMutability": "view",
      "type": "function"
    },
    {
      "inputs": [
        {
          "internalType": "uint256",
          "name": "tokenId",
          "type": "uint256"
        },
        {
          "internalType": "uint256",
          "name": "price",
          "type": "uint256"
        }
      ],
      "name": "listNft",
      "outputs": [],
      "stateMutability": "nonpayable",
      "type": "function"
    },
    {
      "inputs": [
        {
          "internalType": "uint256",
          "name": "",
          "type": "uint256"
        }
      ],
      "name": "listings",
      "outputs": [
        {
          "internalType": "uint256",
          "name": "tokenId",
          "type": "uint256"
        },
        {
          "internalType": "address",
          "name": "seller",
          "type": "address"
        },
        {
          "internalType": "uint256",
          "name": "price",
          "type": "uint256"
        },
        {
          "internalType": "bool",
          "name": "active",
          "type": "bool"
        }
      ],
      "stateMutability": "view",
      "type": "function"
    },
    {
      "inputs": [
        {
          "internalType": "string",
          "name": "name",
          "type": "string"
        },
        {
          "internalType": "string",
          "name": "description",
          "type": "string"
        },
        {
          "internalType": "string",
          "name": "tokenURI",
          "type": "string"
        }
      ],
      "name": "mintNft",
      "outputs": [],
      "stateMutability": "nonpayable",
      "type": "function"
    },
    {
      "inputs": [],
      "name": "name",
      "outputs": [
        {
          "internalType": "string",
          "name": "",
          "type": "string"
        }
      ],
      "stateMutability": "view",
      "type": "function"
    },
    {
      "inputs": [],
      "name": "owner",
      "outputs": [
        {
          "internalType": "address",
          "name": "",
          "type": "address"
        }
      ],
      "stateMutability": "view",
      "type": "function"
    },
    {
      "inputs": [
        {
          "internalType": "uint256",
          "name": "tokenId",
          "type": "uint256"
        }
      ],
      "name": "ownerOf",
      "outputs": [
        {
          "internalType": "address",
          "name": "",
          "type": "address"
        }
      ],
      "stateMutability": "view",
      "type": "function"
    },
    {
      "inputs": [
        {
          "internalType": "address",
          "name": "from",
          "type": "address"
        },
        {
          "internalType": "address",
          "name": "to",
          "type": "address"
        },
        {
          "internalType": "uint256",
          "name": "tokenId",
          "type": "uint256"
        }
      ],
      "name": "safeTransferFrom",
      "outputs": [],
      "stateMutability": "nonpayable",
      "type": "function"
    },
    {
      "inputs": [
        {
          "internalType": "address",
          "name": "from",
          "type": "address"
        },
        {
          "internalType": "address",
          "name": "to",
          "type": "address"
        },
        {
          "internalType": "uint256",
          "name": "tokenId",
          "type": "uint256"
        },
        {
          "internalType": "bytes",
          "name": "data",
          "type": "bytes"
        }
      ],
      "name": "safeTransferFrom",
      "outputs": [],
      "stateMutability": "nonpayable",
      "type": "function"
    },
    {
      "inputs": [
        {
          "internalType": "address",
          "name": "operator",
          "type": "address"
        },
        {
          "internalType": "bool",
          "name": "approved",
          "type": "bool"
        }
      ],
      "name": "setApprovalForAll",
      "outputs": [],
      "stateMutability": "nonpayable",
      "type": "function"
    },
    {
      "inputs": [
        {
          "internalType": "bytes4",
          "name": "interfaceId",
          "type": "bytes4"
        }
      ],
      "name": "supportsInterface",
      "outputs": [
        {
          "internalType": "bool",
          "name": "",
          "type": "bool"
        }
      ],
      "stateMutability": "view",
      "type": "function"
    },
    {
      "inputs": [],
      "name": "symbol",
      "outputs": [
        {
          "internalType": "string",
          "name": "",
          "type": "string"
        }
      ],
      "stateMutability": "view",
      "type": "function"
    },
    {
      "inputs": [
        {
          "internalType": "uint256",
          "name": "tokenId",
          "type": "uint256"
        }
      ],
      "name": "tokenURI",
      "outputs": [
        {
          "internalType": "string",
          "name": "",
          "type": "string"
        }
      ],
      "stateMutability": "view",
      "type": "function"
    },
    {
      "inputs": [
        {
          "internalType": "address",
          "name": "from",
          "type": "address"
        },
        {
          "internalType": "address",
          "name": "to",
          "type": "address"
        },
        {
          "internalType": "uint256",
          "name": "tokenId",
          "type": "uint256"
        }
      ],
      "name": "transferFrom",
      "outputs": [],
      "stateMutability": "nonpayable",
      "type": "function"
    },
    {
      "inputs": [
        {
          "internalType": "uint256",
          "name": "tokenId",
          "type": "uint256"
        },
        {
          "internalType": "uint256",
          "name": "newPrice",
          "type": "uint256"
        }
      ],
      "name": "updateListing",
      "outputs": [],
      "stateMutability": "nonpayable",
      "type": "function"
    },
    {
      "inputs": [],
      "name": "withdraw",
      "outputs": [],
      "stateMutability": "nonpayable",
      "type": "function"
    }
  ],
  "transactionHash": "0xfecb9b38e35ddf76bde0051770d31270b7ab5b4d4d241e2e043f59a98fc03303",
  "args": [
    "myNft",
    "NFT"
  ],
  "numDeployments": 1,
  "solcInputHash": "7819d103c1ca6968aa8a48edd9ec2668",
  "bytecode": "0x608060405260016008553480156200001657600080fd5b50604051620044913803806200449183398181016040528101906200003c919062000308565b8181816000908051906020019062000056929190620000bb565b5080600190805190602001906200006f929190620000bb565b50505033600760006101000a81548173ffffffffffffffffffffffffffffffffffffffff021916908373ffffffffffffffffffffffffffffffffffffffff1602179055505050620003f2565b828054620000c990620003bc565b90600052602060002090601f016020900481019282620000ed576000855562000139565b82601f106200010857805160ff191683800117855562000139565b8280016001018555821562000139579182015b82811115620001385782518255916020019190600101906200011b565b5b5090506200014891906200014c565b5090565b5b80821115620001675760008160009055506001016200014d565b5090565b6000604051905090565b600080fd5b600080fd5b600080fd5b600080fd5b6000601f19601f8301169050919050565b7f4e487b7100000000000000000000000000000000000000000000000000000000600052604160045260246000fd5b620001d48262000189565b810181811067ffffffffffffffff82111715620001f657620001f56200019a565b5b80604052505050565b60006200020b6200016b565b9050620002198282620001c9565b919050565b600067ffffffffffffffff8211156200023c576200023b6200019a565b5b620002478262000189565b9050602081019050919050565b60005b838110156200027457808201518184015260208101905062000257565b8381111562000284576000848401525b50505050565b6000620002a16200029b846200021e565b620001ff565b905082815260208101848484011115620002c057620002bf62000184565b5b620002cd84828562000254565b509392505050565b600082601f830112620002ed57620002ec6200017f565b5b8151620002ff8482602086016200028a565b91505092915050565b6000806040838503121562000322576200032162000175565b5b600083015167ffffffffffffffff8111156200034357620003426200017a565b5b6200035185828601620002d5565b925050602083015167ffffffffffffffff8111156200037557620003746200017a565b5b6200038385828601620002d5565b9150509250929050565b7f4e487b7100000000000000000000000000000000000000000000000000000000600052602260045260246000fd5b60006002820490506001821680620003d557607f821691505b60208210811415620003ec57620003eb6200038d565b5b50919050565b61408f80620004026000396000f3fe6080604052600436106101665760003560e01c806370a08231116100d1578063b88d4fde1161008a578063d846f67c11610064578063d846f67c14610567578063de74e57b14610590578063e985e9c5146105d0578063fe8723e11461060d57610166565b8063b88d4fde146104c4578063c87b56dd146104ed578063d1b1ed7b1461052a57610166565b806370a082311461038b57806370bb609a146103c85780638ad2d5a7146104085780638da5cb5b1461044557806395d89b4114610470578063a22cb4651461049b57610166565b8063305a67a811610123578063305a67a81461028b57806333c03e70146102b45780633ccfd60b146102f257806342842e0e1461030957806351ed8288146103325780636352211e1461034e57610166565b80630179ea881461016b57806301ffc9a71461019457806306fdde03146101d1578063081812fc146101fc578063095ea7b31461023957806323b872dd14610262575b600080fd5b34801561017757600080fd5b50610192600480360381019061018d9190612a49565b610636565b005b3480156101a057600080fd5b506101bb60048036038101906101b69190612ae1565b610776565b6040516101c89190612b29565b60405180910390f35b3480156101dd57600080fd5b506101e66107d7565b6040516101f39190612bdd565b60405180910390f35b34801561020857600080fd5b50610223600480360381019061021e9190612bff565b610869565b6040516102309190612c6d565b60405180910390f35b34801561024557600080fd5b50610260600480360381019061025b9190612cb4565b6108af565b005b34801561026e57600080fd5b5061028960048036038101906102849190612cf4565b6109c7565b005b34801561029757600080fd5b506102b260048036038101906102ad9190612bff565b610a27565b005b3480156102c057600080fd5b506102db60048036038101906102d69190612e7c565b610b6f565b6040516102e9929190612ec5565b60405180910390f35b3480156102fe57600080fd5b50610307610cd5565b005b34801561031557600080fd5b50610330600480360381019061032b9190612cf4565b610e19565b005b61034c60048036038101906103479190612bff565b610e39565b005b34801561035a57600080fd5b5061037560048036038101906103709190612bff565b610fd4565b6040516103829190612c6d565b60405180910390f35b34801561039757600080fd5b506103b260048036038101906103ad9190612efc565b61105b565b6040516103bf9190612f38565b60405180910390f35b3480156103d457600080fd5b506103ef60048036038101906103ea9190612bff565b611113565b6040516103ff9493929190612f53565b60405180910390f35b34801561041457600080fd5b5061042f600480360381019061042a9190612bff565b611181565b60405161043c9190612c6d565b60405180910390f35b34801561045157600080fd5b5061045a6111c1565b6040516104679190612c6d565b60405180910390f35b34801561047c57600080fd5b506104856111e7565b6040516104929190612bdd565b60405180910390f35b3480156104a757600080fd5b506104c260048036038101906104bd9190612fc4565b611279565b005b3480156104d057600080fd5b506104eb60048036038101906104e691906130a5565b61128f565b005b3480156104f957600080fd5b50610514600480360381019061050f9190612bff565b6112f1565b6040516105219190612bdd565b60405180910390f35b34801561053657600080fd5b50610551600480360381019061054c9190612bff565b611404565b60405161055e9190612bdd565b60405180910390f35b34801561057357600080fd5b5061058e60048036038101906105899190613128565b6114f4565b005b34801561059c57600080fd5b506105b760048036038101906105b29190612bff565b61166b565b6040516105c79493929190612f53565b60405180910390f35b3480156105dc57600080fd5b506105f760048036038101906105f291906131cf565b6116c8565b6040516106049190612b29565b60405180910390f35b34801561061957600080fd5b50610634600480360381019061062f9190612a49565b61175c565b005b6000600b600084815260200190815260200160002090508060030160009054906101000a900460ff1661069e576040517f08c379a00000000000000000000000000000000000000000000000000000000081526004016106959061325b565b60405180910390fd5b3373ffffffffffffffffffffffffffffffffffffffff168160010160009054906101000a900473ffffffffffffffffffffffffffffffffffffffff1673ffffffffffffffffffffffffffffffffffffffff1614610730576040517f08c379a0000000000000000000000000000000000000000000000000000000008152600401610727906132ed565b60405180910390fd5b818160020181905550827f945c1c4e99aa89f648fbfe3df471b916f719e16d960fcec0737d4d56bd696838836040516107699190612f38565b60405180910390a2505050565b6000634906490660e01b7bffffffffffffffffffffffffffffffffffffffffffffffffffffffff1916827bffffffffffffffffffffffffffffffffffffffffffffffffffffffff191614806107d057506107cf8261197c565b5b9050919050565b6060600080546107e69061333c565b80601f01602080910402602001604051908101604052809291908181526020018280546108129061333c565b801561085f5780601f106108345761010080835404028352916020019161085f565b820191906000526020600020905b81548152906001019060200180831161084257829003601f168201915b5050505050905090565b600061087482611a5e565b6004600083815260200190815260200160002060009054906101000a900473ffffffffffffffffffffffffffffffffffffffff169050919050565b60006108ba82610fd4565b90508073ffffffffffffffffffffffffffffffffffffffff168373ffffffffffffffffffffffffffffffffffffffff16141561092b576040517f08c379a0000000000000000000000000000000000000000000000000000000008152600401610922906133e0565b60405180910390fd5b8073ffffffffffffffffffffffffffffffffffffffff1661094a611aa9565b73ffffffffffffffffffffffffffffffffffffffff161480610979575061097881610973611aa9565b6116c8565b5b6109b8576040517f08c379a00000000000000000000000000000000000000000000000000000000081526004016109af90613472565b60405180910390fd5b6109c28383611ab1565b505050565b6109d86109d2611aa9565b82611b6a565b610a17576040517f08c379a0000000000000000000000000000000000000000000000000000000008152600401610a0e90613504565b60405180910390fd5b610a22838383611bff565b505050565b6000600b600083815260200190815260200160002090508060030160009054906101000a900460ff16610a8f576040517f08c379a0000000000000000000000000000000000000000000000000000000008152600401610a8690613570565b60405180910390fd5b3373ffffffffffffffffffffffffffffffffffffffff168160010160009054906101000a900473ffffffffffffffffffffffffffffffffffffffff1673ffffffffffffffffffffffffffffffffffffffff1614610b21576040517f08c379a0000000000000000000000000000000000000000000000000000000008152600401610b1890613602565b60405180910390fd5b60008160030160006101000a81548160ff021916908315150217905550817f411aee90354c51b1b04cd563fcab2617142a9d50da19232d888547c8a1b7fd8a60405160405180910390a25050565b606080600a83604051610b82919061365e565b9081526020016040518091039020600001600a84604051610ba3919061365e565b9081526020016040518091039020600101818054610bc09061333c565b80601f0160208091040260200160405190810160405280929190818152602001828054610bec9061333c565b8015610c395780601f10610c0e57610100808354040283529160200191610c39565b820191906000526020600020905b815481529060010190602001808311610c1c57829003601f168201915b50505050509150808054610c4c9061333c565b80601f0160208091040260200160405190810160405280929190818152602001828054610c789061333c565b8015610cc55780601f10610c9a57610100808354040283529160200191610cc5565b820191906000526020600020905b815481529060010190602001808311610ca857829003601f168201915b5050505050905091509150915091565b600760009054906101000a900473ffffffffffffffffffffffffffffffffffffffff1673ffffffffffffffffffffffffffffffffffffffff163373ffffffffffffffffffffffffffffffffffffffff1614610d65576040517f08c379a0000000000000000000000000000000000000000000000000000000008152600401610d5c906136e7565b60405180910390fd5b600047905060008111610dad576040517f08c379a0000000000000000000000000000000000000000000000000000000008152600401610da490613753565b60405180910390fd5b600760009054906101000a900473ffffffffffffffffffffffffffffffffffffffff1673ffffffffffffffffffffffffffffffffffffffff166108fc829081150290604051600060405180830381858888f19350505050158015610e15573d6000803e3d6000fd5b5050565b610e348383836040518060200160405280600081525061128f565b505050565b6000600b600083815260200190815260200160002090508060030160009054906101000a900460ff16610ea1576040517f08c379a0000000000000000000000000000000000000000000000000000000008152600401610e989061325b565b60405180910390fd5b6000816002015411610ee8576040517f08c379a0000000000000000000000000000000000000000000000000000000008152600401610edf906137bf565b60405180910390fd5b8060020154341015610f2f576040517f08c379a0000000000000000000000000000000000000000000000000000000008152600401610f269061382b565b60405180910390fd5b60008160010160009054906101000a900473ffffffffffffffffffffffffffffffffffffffff16905060008260030160006101000a81548160ff021916908315150217905550610f80813385611bff565b3373ffffffffffffffffffffffffffffffffffffffff16837f6329e40c0365262ebbff5ca819385c2b9713dcaa050ed07866d72c441395699a34604051610fc79190612f38565b60405180910390a3505050565b600080610fe083611ef9565b9050600073ffffffffffffffffffffffffffffffffffffffff168173ffffffffffffffffffffffffffffffffffffffff161415611052576040517f08c379a000000000000000000000000000000000000000000000000000000000815260040161104990613897565b60405180910390fd5b80915050919050565b60008073ffffffffffffffffffffffffffffffffffffffff168273ffffffffffffffffffffffffffffffffffffffff1614156110cc576040517f08c379a00000000000000000000000000000000000000000000000000000000081526004016110c390613929565b60405180910390fd5b600360008373ffffffffffffffffffffffffffffffffffffffff1673ffffffffffffffffffffffffffffffffffffffff168152602001908152602001600020549050919050565b6000806000806000600b6000878152602001908152602001600020905080600001548160010160009054906101000a900473ffffffffffffffffffffffffffffffffffffffff1682600201548360030160009054906101000a900460ff169450945094509450509193509193565b60006009600083815260200190815260200160002060000160009054906101000a900473ffffffffffffffffffffffffffffffffffffffff169050919050565b600760009054906101000a900473ffffffffffffffffffffffffffffffffffffffff1681565b6060600180546111f69061333c565b80601f01602080910402602001604051908101604052809291908181526020018280546112229061333c565b801561126f5780601f106112445761010080835404028352916020019161126f565b820191906000526020600020905b81548152906001019060200180831161125257829003601f168201915b5050505050905090565b61128b611284611aa9565b8383611f36565b5050565b6112a061129a611aa9565b83611b6a565b6112df576040517f08c379a00000000000000000000000000000000000000000000000000000000081526004016112d690613504565b60405180910390fd5b6112eb848484846120a3565b50505050565b60606112fc82611a5e565b600060066000848152602001908152602001600020805461131c9061333c565b80601f01602080910402602001604051908101604052809291908181526020018280546113489061333c565b80156113955780601f1061136a57610100808354040283529160200191611395565b820191906000526020600020905b81548152906001019060200180831161137857829003601f168201915b5050505050905060006113a66120ff565b90506000815114156113bc5781925050506113ff565b6000825111156113f15780826040516020016113d9929190613949565b604051602081830303815290604052925050506113ff565b6113fa84612116565b925050505b919050565b606061140f8261217e565b61144e576040517f08c379a0000000000000000000000000000000000000000000000000000000008152600401611445906139b9565b60405180910390fd5b60096000838152602001908152602001600020600101805461146f9061333c565b80601f016020809104026020016040519081016040528092919081815260200182805461149b9061333c565b80156114e85780601f106114bd576101008083540402835291602001916114e8565b820191906000526020600020905b8154815290600101906020018083116114cb57829003601f168201915b50505050509050919050565b6000600854905061150533826121bf565b61150f81836121dd565b60405180606001604052803373ffffffffffffffffffffffffffffffffffffffff168152602001838152602001600015158152506009600083815260200190815260200160002060008201518160000160006101000a81548173ffffffffffffffffffffffffffffffffffffffff021916908373ffffffffffffffffffffffffffffffffffffffff16021790555060208201518160010190805190602001906115b992919061295c565b5060408201518160020160006101000a81548160ff021916908315150217905550905050604051806040016040528085815260200184815250600a83604051611602919061365e565b9081526020016040518091039020600082015181600001908051906020019061162c92919061295c565b50602082015181600101908051906020019061164992919061295c565b509050506008600081548092919061166090613a08565b919050555050505050565b600b6020528060005260406000206000915090508060000154908060010160009054906101000a900473ffffffffffffffffffffffffffffffffffffffff16908060020154908060030160009054906101000a900460ff16905084565b6000600560008473ffffffffffffffffffffffffffffffffffffffff1673ffffffffffffffffffffffffffffffffffffffff16815260200190815260200160002060008373ffffffffffffffffffffffffffffffffffffffff1673ffffffffffffffffffffffffffffffffffffffff16815260200190815260200160002060009054906101000a900460ff16905092915050565b6117658261217e565b6117a4576040517f08c379a000000000000000000000000000000000000000000000000000000000815260040161179b90613a9d565b60405180910390fd5b3373ffffffffffffffffffffffffffffffffffffffff166117c483610fd4565b73ffffffffffffffffffffffffffffffffffffffff161461181a576040517f08c379a000000000000000000000000000000000000000000000000000000000815260040161181190613b2f565b60405180910390fd5b600081101561185e576040517f08c379a000000000000000000000000000000000000000000000000000000000815260040161185590613b9b565b60405180910390fd5b60405180608001604052808381526020013373ffffffffffffffffffffffffffffffffffffffff16815260200182815260200160011515815250600b60008481526020019081526020016000206000820151816000015560208201518160010160006101000a81548173ffffffffffffffffffffffffffffffffffffffff021916908373ffffffffffffffffffffffffffffffffffffffff1602179055506040820151816002015560608201518160030160006101000a81548160ff0219169083151502179055509050503373ffffffffffffffffffffffffffffffffffffffff16827f9adf89188ff96bbe0e772b6a9345d935a240c2bd656be8db63db0d091e92cb9d836040516119709190612f38565b60405180910390a35050565b60007f80ac58cd000000000000000000000000000000000000000000000000000000007bffffffffffffffffffffffffffffffffffffffffffffffffffffffff1916827bffffffffffffffffffffffffffffffffffffffffffffffffffffffff19161480611a4757507f5b5e139f000000000000000000000000000000000000000000000000000000007bffffffffffffffffffffffffffffffffffffffffffffffffffffffff1916827bffffffffffffffffffffffffffffffffffffffffffffffffffffffff1916145b80611a575750611a5682612288565b5b9050919050565b611a678161217e565b611aa6576040517f08c379a0000000000000000000000000000000000000000000000000000000008152600401611a9d90613897565b60405180910390fd5b50565b600033905090565b816004600083815260200190815260200160002060006101000a81548173ffffffffffffffffffffffffffffffffffffffff021916908373ffffffffffffffffffffffffffffffffffffffff160217905550808273ffffffffffffffffffffffffffffffffffffffff16611b2483610fd4565b73ffffffffffffffffffffffffffffffffffffffff167f8c5be1e5ebec7d5bd14f71427d1e84f3dd0314c0f7b2291e5b200ac8c7c3b92560405160405180910390a45050565b600080611b7683610fd4565b90508073ffffffffffffffffffffffffffffffffffffffff168473ffffffffffffffffffffffffffffffffffffffff161480611bb85750611bb781856116c8565b5b80611bf657508373ffffffffffffffffffffffffffffffffffffffff16611bde84610869565b73ffffffffffffffffffffffffffffffffffffffff16145b91505092915050565b8273ffffffffffffffffffffffffffffffffffffffff16611c1f82610fd4565b73ffffffffffffffffffffffffffffffffffffffff1614611c75576040517f08c379a0000000000000000000000000000000000000000000000000000000008152600401611c6c90613c2d565b60405180910390fd5b600073ffffffffffffffffffffffffffffffffffffffff168273ffffffffffffffffffffffffffffffffffffffff161415611ce5576040517f08c379a0000000000000000000000000000000000000000000000000000000008152600401611cdc90613cbf565b60405180910390fd5b611cf283838360016122f2565b8273ffffffffffffffffffffffffffffffffffffffff16611d1282610fd4565b73ffffffffffffffffffffffffffffffffffffffff1614611d68576040517f08c379a0000000000000000000000000000000000000000000000000000000008152600401611d5f90613c2d565b60405180910390fd5b6004600082815260200190815260200160002060006101000a81549073ffffffffffffffffffffffffffffffffffffffff02191690556001600360008573ffffffffffffffffffffffffffffffffffffffff1673ffffffffffffffffffffffffffffffffffffffff168152602001908152602001600020600082825403925050819055506001600360008473ffffffffffffffffffffffffffffffffffffffff1673ffffffffffffffffffffffffffffffffffffffff16815260200190815260200160002060008282540192505081905550816002600083815260200190815260200160002060006101000a81548173ffffffffffffffffffffffffffffffffffffffff021916908373ffffffffffffffffffffffffffffffffffffffff160217905550808273ffffffffffffffffffffffffffffffffffffffff168473ffffffffffffffffffffffffffffffffffffffff167fddf252ad1be2c89b69c2b068fc378daa952ba7f163c4a11628f55a4df523b3ef60405160405180910390a4611ef483838360016122f8565b505050565b60006002600083815260200190815260200160002060009054906101000a900473ffffffffffffffffffffffffffffffffffffffff169050919050565b8173ffffffffffffffffffffffffffffffffffffffff168373ffffffffffffffffffffffffffffffffffffffff161415611fa5576040517f08c379a0000000000000000000000000000000000000000000000000000000008152600401611f9c90613d2b565b60405180910390fd5b80600560008573ffffffffffffffffffffffffffffffffffffffff1673ffffffffffffffffffffffffffffffffffffffff16815260200190815260200160002060008473ffffffffffffffffffffffffffffffffffffffff1673ffffffffffffffffffffffffffffffffffffffff16815260200190815260200160002060006101000a81548160ff0219169083151502179055508173ffffffffffffffffffffffffffffffffffffffff168373ffffffffffffffffffffffffffffffffffffffff167f17307eab39ab6107e8899845ad3d59bd9653f200f220920489ca2b5937696c31836040516120969190612b29565b60405180910390a3505050565b6120ae848484611bff565b6120ba848484846122fe565b6120f9576040517f08c379a00000000000000000000000000000000000000000000000000000000081526004016120f090613dbd565b60405180910390fd5b50505050565b606060405180602001604052806000815250905090565b606061212182611a5e565b600061212b6120ff565b9050600081511161214b5760405180602001604052806000815250612176565b8061215584612495565b604051602001612166929190613949565b6040516020818303038152906040525b915050919050565b60008073ffffffffffffffffffffffffffffffffffffffff166121a083611ef9565b73ffffffffffffffffffffffffffffffffffffffff1614159050919050565b6121d982826040518060200160405280600081525061256d565b5050565b6121e68261217e565b612225576040517f08c379a000000000000000000000000000000000000000000000000000000000815260040161221c90613e4f565b60405180910390fd5b8060066000848152602001908152602001600020908051906020019061224c92919061295c565b507ff8e1a15aba9398e019f0b49df1a4fde98ee17ae345cb5f6b5e2c27f5033e8ce78260405161227c9190612f38565b60405180910390a15050565b60007f01ffc9a7000000000000000000000000000000000000000000000000000000007bffffffffffffffffffffffffffffffffffffffffffffffffffffffff1916827bffffffffffffffffffffffffffffffffffffffffffffffffffffffff1916149050919050565b50505050565b50505050565b600061231f8473ffffffffffffffffffffffffffffffffffffffff166125c8565b15612488578373ffffffffffffffffffffffffffffffffffffffff1663150b7a02612348611aa9565b8786866040518563ffffffff1660e01b815260040161236a9493929190613ec4565b602060405180830381600087803b15801561238457600080fd5b505af19250505080156123b557506040513d601f19601f820116820180604052508101906123b29190613f25565b60015b612438573d80600081146123e5576040519150601f19603f3d011682016040523d82523d6000602084013e6123ea565b606091505b50600081511415612430576040517f08c379a000000000000000000000000000000000000000000000000000000000815260040161242790613dbd565b60405180910390fd5b805181602001fd5b63150b7a0260e01b7bffffffffffffffffffffffffffffffffffffffffffffffffffffffff1916817bffffffffffffffffffffffffffffffffffffffffffffffffffffffff19161491505061248d565b600190505b949350505050565b6060600060016124a4846125eb565b01905060008167ffffffffffffffff8111156124c3576124c2612d51565b5b6040519080825280601f01601f1916602001820160405280156124f55781602001600182028036833780820191505090505b509050600082602001820190505b600115612562578080600190039150507f3031323334353637383961626364656600000000000000000000000000000000600a86061a8153600a858161254c5761254b613f52565b5b049450600085141561255d57612562565b612503565b819350505050919050565b612577838361273e565b61258460008484846122fe565b6125c3576040517f08c379a00000000000000000000000000000000000000000000000000000000081526004016125ba90613dbd565b60405180910390fd5b505050565b6000808273ffffffffffffffffffffffffffffffffffffffff163b119050919050565b600080600090507a184f03e93ff9f4daa797ed6e38ed64bf6a1f0100000000000000008310612649577a184f03e93ff9f4daa797ed6e38ed64bf6a1f010000000000000000838161263f5761263e613f52565b5b0492506040810190505b6d04ee2d6d415b85acef81000000008310612686576d04ee2d6d415b85acef8100000000838161267c5761267b613f52565b5b0492506020810190505b662386f26fc1000083106126b557662386f26fc1000083816126ab576126aa613f52565b5b0492506010810190505b6305f5e10083106126de576305f5e10083816126d4576126d3613f52565b5b0492506008810190505b61271083106127035761271083816126f9576126f8613f52565b5b0492506004810190505b60648310612726576064838161271c5761271b613f52565b5b0492506002810190505b600a8310612735576001810190505b80915050919050565b600073ffffffffffffffffffffffffffffffffffffffff168273ffffffffffffffffffffffffffffffffffffffff1614156127ae576040517f08c379a00000000000000000000000000000000000000000000000000000000081526004016127a590613fcd565b60405180910390fd5b6127b78161217e565b156127f7576040517f08c379a00000000000000000000000000000000000000000000000000000000081526004016127ee90614039565b60405180910390fd5b6128056000838360016122f2565b61280e8161217e565b1561284e576040517f08c379a000000000000000000000000000000000000000000000000000000000815260040161284590614039565b60405180910390fd5b6001600360008473ffffffffffffffffffffffffffffffffffffffff1673ffffffffffffffffffffffffffffffffffffffff16815260200190815260200160002060008282540192505081905550816002600083815260200190815260200160002060006101000a81548173ffffffffffffffffffffffffffffffffffffffff021916908373ffffffffffffffffffffffffffffffffffffffff160217905550808273ffffffffffffffffffffffffffffffffffffffff16600073ffffffffffffffffffffffffffffffffffffffff167fddf252ad1be2c89b69c2b068fc378daa952ba7f163c4a11628f55a4df523b3ef60405160405180910390a46129586000838360016122f8565b5050565b8280546129689061333c565b90600052602060002090601f01602090048101928261298a57600085556129d1565b82601f106129a357805160ff19168380011785556129d1565b828001600101855582156129d1579182015b828111156129d05782518255916020019190600101906129b5565b5b5090506129de91906129e2565b5090565b5b808211156129fb5760008160009055506001016129e3565b5090565b6000604051905090565b600080fd5b600080fd5b6000819050919050565b612a2681612a13565b8114612a3157600080fd5b50565b600081359050612a4381612a1d565b92915050565b60008060408385031215612a6057612a5f612a09565b5b6000612a6e85828601612a34565b9250506020612a7f85828601612a34565b9150509250929050565b60007fffffffff0000000000000000000000000000000000000000000000000000000082169050919050565b612abe81612a89565b8114612ac957600080fd5b50565b600081359050612adb81612ab5565b92915050565b600060208284031215612af757612af6612a09565b5b6000612b0584828501612acc565b91505092915050565b60008115159050919050565b612b2381612b0e565b82525050565b6000602082019050612b3e6000830184612b1a565b92915050565b600081519050919050565b600082825260208201905092915050565b60005b83811015612b7e578082015181840152602081019050612b63565b83811115612b8d576000848401525b50505050565b6000601f19601f8301169050919050565b6000612baf82612b44565b612bb98185612b4f565b9350612bc9818560208601612b60565b612bd281612b93565b840191505092915050565b60006020820190508181036000830152612bf78184612ba4565b905092915050565b600060208284031215612c1557612c14612a09565b5b6000612c2384828501612a34565b91505092915050565b600073ffffffffffffffffffffffffffffffffffffffff82169050919050565b6000612c5782612c2c565b9050919050565b612c6781612c4c565b82525050565b6000602082019050612c826000830184612c5e565b92915050565b612c9181612c4c565b8114612c9c57600080fd5b50565b600081359050612cae81612c88565b92915050565b60008060408385031215612ccb57612cca612a09565b5b6000612cd985828601612c9f565b9250506020612cea85828601612a34565b9150509250929050565b600080600060608486031215612d0d57612d0c612a09565b5b6000612d1b86828701612c9f565b9350506020612d2c86828701612c9f565b9250506040612d3d86828701612a34565b9150509250925092565b600080fd5b600080fd5b7f4e487b7100000000000000000000000000000000000000000000000000000000600052604160045260246000fd5b612d8982612b93565b810181811067ffffffffffffffff82111715612da857612da7612d51565b5b80604052505050565b6000612dbb6129ff565b9050612dc78282612d80565b919050565b600067ffffffffffffffff821115612de757612de6612d51565b5b612df082612b93565b9050602081019050919050565b82818337600083830152505050565b6000612e1f612e1a84612dcc565b612db1565b905082815260208101848484011115612e3b57612e3a612d4c565b5b612e46848285612dfd565b509392505050565b600082601f830112612e6357612e62612d47565b5b8135612e73848260208601612e0c565b91505092915050565b600060208284031215612e9257612e91612a09565b5b600082013567ffffffffffffffff811115612eb057612eaf612a0e565b5b612ebc84828501612e4e565b91505092915050565b60006040820190508181036000830152612edf8185612ba4565b90508181036020830152612ef38184612ba4565b90509392505050565b600060208284031215612f1257612f11612a09565b5b6000612f2084828501612c9f565b91505092915050565b612f3281612a13565b82525050565b6000602082019050612f4d6000830184612f29565b92915050565b6000608082019050612f686000830187612f29565b612f756020830186612c5e565b612f826040830185612f29565b612f8f6060830184612b1a565b95945050505050565b612fa181612b0e565b8114612fac57600080fd5b50565b600081359050612fbe81612f98565b92915050565b60008060408385031215612fdb57612fda612a09565b5b6000612fe985828601612c9f565b9250506020612ffa85828601612faf565b9150509250929050565b600067ffffffffffffffff82111561301f5761301e612d51565b5b61302882612b93565b9050602081019050919050565b600061304861304384613004565b612db1565b90508281526020810184848401111561306457613063612d4c565b5b61306f848285612dfd565b509392505050565b600082601f83011261308c5761308b612d47565b5b813561309c848260208601613035565b91505092915050565b600080600080608085870312156130bf576130be612a09565b5b60006130cd87828801612c9f565b94505060206130de87828801612c9f565b93505060406130ef87828801612a34565b925050606085013567ffffffffffffffff8111156131105761310f612a0e565b5b61311c87828801613077565b91505092959194509250565b60008060006060848603121561314157613140612a09565b5b600084013567ffffffffffffffff81111561315f5761315e612a0e565b5b61316b86828701612e4e565b935050602084013567ffffffffffffffff81111561318c5761318b612a0e565b5b61319886828701612e4e565b925050604084013567ffffffffffffffff8111156131b9576131b8612a0e565b5b6131c586828701612e4e565b9150509250925092565b600080604083850312156131e6576131e5612a09565b5b60006131f485828601612c9f565b925050602061320585828601612c9f565b9150509250929050565b7f4c697374696e6720697320696e6163746976652e000000000000000000000000600082015250565b6000613245601483612b4f565b91506132508261320f565b602082019050919050565b6000602082019050818103600083015261327481613238565b9050919050565b7f4f6e6c79207468652073656c6c65722063616e2075706461746520746865207060008201527f726963652e000000000000000000000000000000000000000000000000000000602082015250565b60006132d7602583612b4f565b91506132e28261327b565b604082019050919050565b60006020820190508181036000830152613306816132ca565b9050919050565b7f4e487b7100000000000000000000000000000000000000000000000000000000600052602260045260246000fd5b6000600282049050600182168061335457607f821691505b602082108114156133685761336761330d565b5b50919050565b7f4552433732313a20617070726f76616c20746f2063757272656e74206f776e6560008201527f7200000000000000000000000000000000000000000000000000000000000000602082015250565b60006133ca602183612b4f565b91506133d58261336e565b604082019050919050565b600060208201905081810360008301526133f9816133bd565b9050919050565b7f4552433732313a20617070726f76652063616c6c6572206973206e6f7420746f60008201527f6b656e206f776e6572206f7220617070726f76656420666f7220616c6c000000602082015250565b600061345c603d83612b4f565b915061346782613400565b604082019050919050565b6000602082019050818103600083015261348b8161344f565b9050919050565b7f4552433732313a2063616c6c6572206973206e6f7420746f6b656e206f776e6560008201527f72206f7220617070726f76656400000000000000000000000000000000000000602082015250565b60006134ee602d83612b4f565b91506134f982613492565b604082019050919050565b6000602082019050818103600083015261351d816134e1565b9050919050565b7f4c697374696e6720697320616c726561647920696e6163746976650000000000600082015250565b600061355a601b83612b4f565b915061356582613524565b602082019050919050565b600060208201905081810360008301526135898161354d565b9050919050565b7f4f6e6c79207468652073656c6c65722063616e2063616e63656c20746865206c60008201527f697374696e672e00000000000000000000000000000000000000000000000000602082015250565b60006135ec602783612b4f565b91506135f782613590565b604082019050919050565b6000602082019050818103600083015261361b816135df565b9050919050565b600081905092915050565b600061363882612b44565b6136428185613622565b9350613652818560208601612b60565b80840191505092915050565b600061366a828461362d565b915081905092915050565b7f4f6e6c7920746865206f776e65722063616e2063616c6c20746869732066756e60008201527f6374696f6e2e0000000000000000000000000000000000000000000000000000602082015250565b60006136d1602683612b4f565b91506136dc82613675565b604082019050919050565b60006020820190508181036000830152613700816136c4565b9050919050565b7f4e6f2062616c616e636520746f2077697468647261772e000000000000000000600082015250565b600061373d601783612b4f565b915061374882613707565b602082019050919050565b6000602082019050818103600083015261376c81613730565b9050919050565b7f4e4654206973206e6f7420666f722073616c652e000000000000000000000000600082015250565b60006137a9601483612b4f565b91506137b482613773565b602082019050919050565b600060208201905081810360008301526137d88161379c565b9050919050565b7f496e73756666696369656e742066756e64732e00000000000000000000000000600082015250565b6000613815601383612b4f565b9150613820826137df565b602082019050919050565b6000602082019050818103600083015261384481613808565b9050919050565b7f4552433732313a20696e76616c696420746f6b656e2049440000000000000000600082015250565b6000613881601883612b4f565b915061388c8261384b565b602082019050919050565b600060208201905081810360008301526138b081613874565b9050919050565b7f4552433732313a2061646472657373207a65726f206973206e6f74206120766160008201527f6c6964206f776e65720000000000000000000000000000000000000000000000602082015250565b6000613913602983612b4f565b915061391e826138b7565b604082019050919050565b6000602082019050818103600083015261394281613906565b9050919050565b6000613955828561362d565b9150613961828461362d565b91508190509392505050565b7f496e76616c696420746f6b656e20494400000000000000000000000000000000600082015250565b60006139a3601083612b4f565b91506139ae8261396d565b602082019050919050565b600060208201905081810360008301526139d281613996565b9050919050565b7f4e487b7100000000000000000000000000000000000000000000000000000000600052601160045260246000fd5b6000613a1382612a13565b91507fffffffffffffffffffffffffffffffffffffffffffffffffffffffffffffffff821415613a4657613a456139d9565b5b600182019050919050565b7f4e465420646f6573206e6f742065786973742e00000000000000000000000000600082015250565b6000613a87601383612b4f565b9150613a9282613a51565b602082019050919050565b60006020820190508181036000830152613ab681613a7a565b9050919050565b7f4f6e6c7920746865206f776e65722063616e206c697374207468656972204e4660008201527f542e000000000000000000000000000000000000000000000000000000000000602082015250565b6000613b19602283612b4f565b9150613b2482613abd565b604082019050919050565b60006020820190508181036000830152613b4881613b0c565b9050919050565b7f50726963652063616e6e6f74206265206e656761746976652e00000000000000600082015250565b6000613b85601983612b4f565b9150613b9082613b4f565b602082019050919050565b60006020820190508181036000830152613bb481613b78565b9050919050565b7f4552433732313a207472616e736665722066726f6d20696e636f72726563742060008201527f6f776e6572000000000000000000000000000000000000000000000000000000602082015250565b6000613c17602583612b4f565b9150613c2282613bbb565b604082019050919050565b60006020820190508181036000830152613c4681613c0a565b9050919050565b7f4552433732313a207472616e7366657220746f20746865207a65726f2061646460008201527f7265737300000000000000000000000000000000000000000000000000000000602082015250565b6000613ca9602483612b4f565b9150613cb482613c4d565b604082019050919050565b60006020820190508181036000830152613cd881613c9c565b9050919050565b7f4552433732313a20617070726f766520746f2063616c6c657200000000000000600082015250565b6000613d15601983612b4f565b9150613d2082613cdf565b602082019050919050565b60006020820190508181036000830152613d4481613d08565b9050919050565b7f4552433732313a207472616e7366657220746f206e6f6e20455243373231526560008201527f63656976657220696d706c656d656e7465720000000000000000000000000000602082015250565b6000613da7603283612b4f565b9150613db282613d4b565b604082019050919050565b60006020820190508181036000830152613dd681613d9a565b9050919050565b7f45524337323155524953746f726167653a2055524920736574206f66206e6f6e60008201527f6578697374656e7420746f6b656e000000000000000000000000000000000000602082015250565b6000613e39602e83612b4f565b9150613e4482613ddd565b604082019050919050565b60006020820190508181036000830152613e6881613e2c565b9050919050565b600081519050919050565b600082825260208201905092915050565b6000613e9682613e6f565b613ea08185613e7a565b9350613eb0818560208601612b60565b613eb981612b93565b840191505092915050565b6000608082019050613ed96000830187612c5e565b613ee66020830186612c5e565b613ef36040830185612f29565b8181036060830152613f058184613e8b565b905095945050505050565b600081519050613f1f81612ab5565b92915050565b600060208284031215613f3b57613f3a612a09565b5b6000613f4984828501613f10565b91505092915050565b7f4e487b7100000000000000000000000000000000000000000000000000000000600052601260045260246000fd5b7f4552433732313a206d696e7420746f20746865207a65726f2061646472657373600082015250565b6000613fb7602083612b4f565b9150613fc282613f81565b602082019050919050565b60006020820190508181036000830152613fe681613faa565b9050919050565b7f4552433732313a20746f6b656e20616c7265616479206d696e74656400000000600082015250565b6000614023601c83612b4f565b915061402e82613fed565b602082019050919050565b6000602082019050818103600083015261405281614016565b905091905056fea2646970667358221220b410b1494d8c4d102b89b6a453a5a7761aa33fd6b6de155b044509d0c48efbe864736f6c63430008080033",
  "devdoc": {
    "kind": "dev",
    "methods": {
      "approve(address,uint256)": {
        "details": "See {IERC721-approve}."
      },
      "balanceOf(address)": {
        "details": "See {IERC721-balanceOf}."
      },
      "getApproved(uint256)": {
        "details": "See {IERC721-getApproved}."
      },
      "isApprovedForAll(address,address)": {
        "details": "See {IERC721-isApprovedForAll}."
      },
      "name()": {
        "details": "See {IERC721Metadata-name}."
      },
      "ownerOf(uint256)": {
        "details": "See {IERC721-ownerOf}."
      },
      "safeTransferFrom(address,address,uint256)": {
        "details": "See {IERC721-safeTransferFrom}."
      },
      "safeTransferFrom(address,address,uint256,bytes)": {
        "details": "See {IERC721-safeTransferFrom}."
      },
      "setApprovalForAll(address,bool)": {
        "details": "See {IERC721-setApprovalForAll}."
      },
      "supportsInterface(bytes4)": {
        "details": "See {IERC165-supportsInterface}"
      },
      "symbol()": {
        "details": "See {IERC721Metadata-symbol}."
      },
      "tokenURI(uint256)": {
        "details": "See {IERC721Metadata-tokenURI}."
      },
      "transferFrom(address,address,uint256)": {
        "details": "See {IERC721-transferFrom}."
      }
    },
    "version": 1
  },
  "userdoc": {
    "kind": "user",
    "methods": {},
    "version": 1
  },
  "storageLayout": {
    "storage": [
      {
        "astId": 53,
        "contract": "contracts/NftContract.sol:NftContract",
        "label": "_name",
        "offset": 0,
        "slot": "0",
        "type": "t_string_storage"
      },
      {
        "astId": 55,
        "contract": "contracts/NftContract.sol:NftContract",
        "label": "_symbol",
        "offset": 0,
        "slot": "1",
        "type": "t_string_storage"
      },
      {
        "astId": 59,
        "contract": "contracts/NftContract.sol:NftContract",
        "label": "_owners",
        "offset": 0,
        "slot": "2",
        "type": "t_mapping(t_uint256,t_address)"
      },
      {
        "astId": 63,
        "contract": "contracts/NftContract.sol:NftContract",
        "label": "_balances",
        "offset": 0,
        "slot": "3",
        "type": "t_mapping(t_address,t_uint256)"
      },
      {
        "astId": 67,
        "contract": "contracts/NftContract.sol:NftContract",
        "label": "_tokenApprovals",
        "offset": 0,
        "slot": "4",
        "type": "t_mapping(t_uint256,t_address)"
      },
      {
        "astId": 73,
        "contract": "contracts/NftContract.sol:NftContract",
        "label": "_operatorApprovals",
        "offset": 0,
        "slot": "5",
        "type": "t_mapping(t_address,t_mapping(t_address,t_bool))"
      },
      {
        "astId": 1104,
        "contract": "contracts/NftContract.sol:NftContract",
        "label": "_tokenURIs",
        "offset": 0,
        "slot": "6",
        "type": "t_mapping(t_uint256,t_string_storage)"
      },
      {
        "astId": 2892,
        "contract": "contracts/NftContract.sol:NftContract",
        "label": "owner",
        "offset": 0,
        "slot": "7",
        "type": "t_address"
      },
      {
        "astId": 2895,
        "contract": "contracts/NftContract.sol:NftContract",
        "label": "tokenIdCounter",
        "offset": 0,
        "slot": "8",
        "type": "t_uint256"
      },
      {
        "astId": 2921,
        "contract": "contracts/NftContract.sol:NftContract",
        "label": "_nfts",
        "offset": 0,
        "slot": "9",
        "type": "t_mapping(t_uint256,t_struct(Nft)2902_storage)"
      },
      {
        "astId": 2926,
        "contract": "contracts/NftContract.sol:NftContract",
        "label": "_nftMetadata",
        "offset": 0,
        "slot": "10",
        "type": "t_mapping(t_string_memory_ptr,t_struct(NftMetadata)2907_storage)"
      },
      {
        "astId": 2931,
        "contract": "contracts/NftContract.sol:NftContract",
        "label": "listings",
        "offset": 0,
        "slot": "11",
        "type": "t_mapping(t_uint256,t_struct(Listing)2916_storage)"
      }
    ],
    "types": {
      "t_address": {
        "encoding": "inplace",
        "label": "address",
        "numberOfBytes": "20"
      },
      "t_bool": {
        "encoding": "inplace",
        "label": "bool",
        "numberOfBytes": "1"
      },
      "t_mapping(t_address,t_bool)": {
        "encoding": "mapping",
        "key": "t_address",
        "label": "mapping(address => bool)",
        "numberOfBytes": "32",
        "value": "t_bool"
      },
      "t_mapping(t_address,t_mapping(t_address,t_bool))": {
        "encoding": "mapping",
        "key": "t_address",
        "label": "mapping(address => mapping(address => bool))",
        "numberOfBytes": "32",
        "value": "t_mapping(t_address,t_bool)"
      },
      "t_mapping(t_address,t_uint256)": {
        "encoding": "mapping",
        "key": "t_address",
        "label": "mapping(address => uint256)",
        "numberOfBytes": "32",
        "value": "t_uint256"
      },
      "t_mapping(t_string_memory_ptr,t_struct(NftMetadata)2907_storage)": {
        "encoding": "mapping",
        "key": "t_string_memory_ptr",
        "label": "mapping(string => struct NftContract.NftMetadata)",
        "numberOfBytes": "32",
        "value": "t_struct(NftMetadata)2907_storage"
      },
      "t_mapping(t_uint256,t_address)": {
        "encoding": "mapping",
        "key": "t_uint256",
        "label": "mapping(uint256 => address)",
        "numberOfBytes": "32",
        "value": "t_address"
      },
      "t_mapping(t_uint256,t_string_storage)": {
        "encoding": "mapping",
        "key": "t_uint256",
        "label": "mapping(uint256 => string)",
        "numberOfBytes": "32",
        "value": "t_string_storage"
      },
      "t_mapping(t_uint256,t_struct(Listing)2916_storage)": {
        "encoding": "mapping",
        "key": "t_uint256",
        "label": "mapping(uint256 => struct NftContract.Listing)",
        "numberOfBytes": "32",
        "value": "t_struct(Listing)2916_storage"
      },
      "t_mapping(t_uint256,t_struct(Nft)2902_storage)": {
        "encoding": "mapping",
        "key": "t_uint256",
        "label": "mapping(uint256 => struct NftContract.Nft)",
        "numberOfBytes": "32",
        "value": "t_struct(Nft)2902_storage"
      },
      "t_string_memory_ptr": {
        "encoding": "bytes",
        "label": "string",
        "numberOfBytes": "32"
      },
      "t_string_storage": {
        "encoding": "bytes",
        "label": "string",
        "numberOfBytes": "32"
      },
      "t_struct(Listing)2916_storage": {
        "encoding": "inplace",
        "label": "struct NftContract.Listing",
        "members": [
          {
            "astId": 2909,
            "contract": "contracts/NftContract.sol:NftContract",
            "label": "tokenId",
            "offset": 0,
            "slot": "0",
            "type": "t_uint256"
          },
          {
            "astId": 2911,
            "contract": "contracts/NftContract.sol:NftContract",
            "label": "seller",
            "offset": 0,
            "slot": "1",
            "type": "t_address"
          },
          {
            "astId": 2913,
            "contract": "contracts/NftContract.sol:NftContract",
            "label": "price",
            "offset": 0,
            "slot": "2",
            "type": "t_uint256"
          },
          {
            "astId": 2915,
            "contract": "contracts/NftContract.sol:NftContract",
            "label": "active",
            "offset": 0,
            "slot": "3",
            "type": "t_bool"
          }
        ],
        "numberOfBytes": "128"
      },
      "t_struct(Nft)2902_storage": {
        "encoding": "inplace",
        "label": "struct NftContract.Nft",
        "members": [
          {
            "astId": 2897,
            "contract": "contracts/NftContract.sol:NftContract",
            "label": "owner",
            "offset": 0,
            "slot": "0",
            "type": "t_address"
          },
          {
            "astId": 2899,
            "contract": "contracts/NftContract.sol:NftContract",
            "label": "ImageURI",
            "offset": 0,
            "slot": "1",
            "type": "t_string_storage"
          },
          {
            "astId": 2901,
            "contract": "contracts/NftContract.sol:NftContract",
            "label": "listedOnMarketplace",
            "offset": 0,
            "slot": "2",
            "type": "t_bool"
          }
        ],
        "numberOfBytes": "96"
      },
      "t_struct(NftMetadata)2907_storage": {
        "encoding": "inplace",
        "label": "struct NftContract.NftMetadata",
        "members": [
          {
            "astId": 2904,
            "contract": "contracts/NftContract.sol:NftContract",
            "label": "name",
            "offset": 0,
            "slot": "0",
            "type": "t_string_storage"
          },
          {
            "astId": 2906,
            "contract": "contracts/NftContract.sol:NftContract",
            "label": "description",
            "offset": 0,
            "slot": "1",
            "type": "t_string_storage"
          }
        ],
        "numberOfBytes": "64"
      },
      "t_uint256": {
        "encoding": "inplace",
        "label": "uint256",
        "numberOfBytes": "32"
      }
    }
  }
}